:020000040800F2
:10000000A03E0020ED01000881450008DD37000812
:100010007D450008C10A0008F555000800000000F1
:10002000000000000000000000000000D1480008AF
:10003000D10A00080000000085450008D5480008E6
:10004000070200080702000807020008070200086C
:10005000070200080702000807020008070200085C
:10006000070200080702000807020008C50A000886
:10007000070200080702000807020008070200083C
:10008000070200080000000007020008070200083D
:10009000070200080702000807020008070200081C
:1000A000070200080702000807020008070200080C
:1000B00007020008070200080702000807020008FC
:1000C00007020008070200080702000807020008EC
:1000D0000702000807020008E955000807020008A7
:1000E00007020008070200080702000807020008CC
:1000F00007020008070200080702000800000000CD
:1001000000000000070200080000000007020008CD
:1001100007020008000000000702000807020008AC
:10012000070200080702000807020008070200088B
:10013000070200080000000000000000070200089D
:10014000070200080702000800000000000000008D
:10015000000000000000000000000000000000009F
:10016000000000000000000000000000070200087E
:10017000070200080000000000000000000000006E
:10018000000000000702000800000000000000005E
:10019000000000000000000000000000000000005F
:1001A000000000000000000007020008070200082D
:1001B000070200080702000807020008000000000C
:1001C000000000000702000800000000000000001E
:1001D0000702000807020008DFF80CD000F09EFAC2
:1001E0000048004789680008A03E00200648804774
:1001F00006480047FEE7FEE7FEE7FEE7FEE7FEE70C
:10020000FEE7FEE7FEE7FEE7D9480008D90100084F
:100210002DE9F05F0546002092469B46884606463B
:10022000814640241BE0284641464746224600F0CE
:10023000ADF853465A46C01A914110D3114618469C
:10024000224600F094F82D1A67EB01084F4622462B
:100250000120002100F08BF817EB00094E41201E11
:10026000A4F10104DFDC484631462A464346BDE896
:10027000F09F10B5431A934209D28318881803E0FF
:1002800010F8011D03F8011D521EF9D210BD40EAFD
:1002900001039B0703D009E008C9121F08C0042A04
:1002A000FAD203E011F8013B00F8013B521EF9D2EB
:1002B00010BDD2B201E000F8012B491EFBD27047FD
:1002C0000022F6E710B513460A4604461946FFF722
:1002D000F0FF204610BD30B505462A460B4612F801
:1002E000010B13F8014B08B1A042F8D01CB1002853
:1002F00002D06D1CF1E7284630BDCAB2401E10F88E
:10030000011F8A4202D00029F9D100207047421C07
:1003100010F8011B0029FBD1801A704700F0004241
:1003200030F000400AD0C10D01F56071C0F3160035
:1003300042EA0151C20840071143704700200146BC
:10034000704730B50B46014600202022012409E009
:1003500021FA02F59D4205D303FA02F5491B04FA7E
:1003600002F52844151EA2F10102F1DC30BD202A5D
:1003700004DB203A00FA02F1002070479140C2F1FC
:10038000200320FA03F3194390407047202A04DB2E
:10039000203A21FA02F00021704721FA02F3D040FE
:1003A000C2F1200291400843194670472DE9FE4FE3
:1003B000804681EA0300C00F0C46009021F0004106
:1003C00023F00045B8EB0200A94105D24046214682
:1003D00090461C460B46024623F00040104347D08F
:1003E000270DC7F30A00C3F30A510290401A019087
:1003F00040286BDAC3F3130040F4801B0098924648
:1004000020B10023D2EB030A63EB0B0B0198594692
:10041000C0F140025046FFF7AAFF06460D4650467F
:100420005946019A00F092F910EB0800614100244E
:1004300087EA115284EAE7731A4340D0009A62B304
:10044000019A012A4FEA075215DC001B61EB0201F9
:100450004FF0004202EA0752CDE90042001C41F58C
:10046000801132462B4600F092F903B0BDE8F08FC0
:1004700040462146F9E7001B61EB0201001C41F5F3
:10048000801300185B412018A2F5001747EB030109
:1004900040EAD570B6196D4111E06D084FEA360695
:1004A00045EAC0754FEA0752001B61EB0201001CD0
:1004B00041F5801149084FEA300000195141324698
:1004C0002B4603B0BDE8F04F00F052B9009801226E
:1004D00040000023D0EB020263EBE073009821465A
:1004E0004FEAE074B8EB000061EB0401E9E783F048
:1004F00000435BE781F0004158E72DE9FE4F81EAB8
:10050000030404F0004421F0004100944FF0000B7C
:1005100023F0004350EA01045ED052EA03045BD0AA
:10052000C3F30A54C1F30A552C44A4F2F3340194E2
:10053000A0FB0254C1F3130141F48011C3F3130370
:1005400043F4801301FB024400FB034E840A970A24
:1005500044EA815447EA8357A4FB076802958D0A51
:1005600005FB07854FEA932C04FB0C542705029DDD
:100570004FEA065847EA1637B5EB08056EEB070C4D
:10058000870E920E47EA811742EA8312A7FB020107
:10059000B6EB0B0164EB00042B0D43EA0C335E1841
:1005A00044EB1C50DA465146E7FB0201C5F3130445
:1005B0004FEA0B3343EA14534FEA0432019C43EAF7
:1005C0000603A4F10C040294009CCDE900B400F0F1
:1005D000DEF803B0BDE8F08F00200146F9E72DE911
:1005E000F04D81EA030404F0004B21F0004514466D
:1005F0004FF0000A23F0004150EA050220D054EAEF
:1006000001021DD0C5F30A570246C5F31303C1F317
:100610001300C1F30A5640F4801543F48013A7EB8E
:100620000608101BD64608F2FD3873EB050002D30E
:1006300008F1010801E092185B41B8F1000F03DAFC
:1006400000200146BDE8F08D00204FF480110646E1
:1006500084460EE0171B73EB050705D3121B63EBF3
:10066000050306434CEA010C49084FEA3000921892
:100670005B4150EA0107EDD152EA030012D082EA51
:10068000040083EA0501084305D0101BAB4106D2E4
:100690000122002306E000224FF0004302E06FF049
:1006A000010253101AEB06004CEB085110EB0A0044
:1006B00041EB0B01BDE8F04D00F05AB8C1F30A520E
:1006C000C1F3130140F2FF3341F480119A4202DA80
:1006D00000200146704740F233439A42A2F233426F
:1006E00002DC5242FFF752BEFFF741BE30B5041E96
:1006F00071F1000404DB4FF00044404264EB01015F
:10070000141E73F1000405DB1C464FF000435242F7
:1007100063EB0403994208BF904230BD1CB5094801
:100720000090094801900546009C06E0E06840F012
:10073000010394E8070098471034AC42F6D3FFF762
:100740004FFD000040F7010860F70108202A06DB92
:10075000CB17203A41FA02F043EAE07306E041FA8F
:1007600002F3D040C2F1200291400843194670477D
:1007700010B5141E73F1000408DA401C41F10001A9
:1007800092185B411A4301D120F0010010BD2DE900
:10079000F04D92469B4611B1B1FA81F202E0B0FAF7
:1007A00080F220329046FFF7E2FD04460F4640EA11
:1007B0000A0041EA0B0153465A46084313D011463A
:1007C00053EA010019D0C8F140025046FFF7DEFDA0
:1007D00005460E46504659464246FFF7C8FD0843B7
:1007E00005D0012004E020463946BDE8F08D002008
:1007F000054346EAE0762C4337430A986305E40A4A
:10080000A0EB08000022FD0A44EA47540A3002D552
:1008100000200146E9E7010510196941DDE90845B5
:1008200000196941BDE8F04DA2E70000012884BF2E
:100830006FF0010070472DE9F04397B040F20C01D2
:10084000C2F2000142F6986251F82010C2F2000292
:10085000942310FB0328584301AD115005F1080003
:100860003C21FFF72DFD012001900027284602972B
:1008700001F08EFA41F24C00C4F20200416940F6E8
:10088000000541F4804141614169C4F6000501F46D
:10089000804112911299016812AE41F00401016089
:1008A00000684FF0020900F0040012901298102026
:1008B0001290072428463146CDE9139715971694D0
:1008C00000F024FD2020CDE9120928463146CDE96B
:1008D0001477169400F01AFD404603F09DFD0028A1
:1008E00018BF6FF0030017B0BDE8F08300F004BE3E
:1008F00010B540F26004C2F20004206810B1013863
:10090000206001D0002010BD41F25800C4F2020066
:10091000016821F4800101604FF090404FF4807134
:1009200000F070FC4FF090404FF4007100F06AFC52
:10093000201D00F031FE002818BF6FF0070010BD29
:1009400040F26000C2F2000045F600010268C4F205
:1009500000014160511C002A01601CBF002070474B
:100960002DE9F04397B0041D204600F031FE002829
:100970004FF0000002D017B0BDE8F08301AD281D94
:1009800040210026FFF79CFC80200190284601F0C2
:10099000FFF941F24C07C4F20207386812AD40F08B
:1009A0000100386038684FF0120800F00100129022
:1009B00012984FF4807012904FF004094FF090405D
:1009C0002946CDE913861596CDF8589000F09EFC87
:1009D0004FF40070CDE912084FF090402946CDE960
:1009E0001466CDF8589000F091FCF86840F480004F
:1009F000F860F86800F4800000900098204603F04A
:100A0000D7F928B16FF0070017B0BDE8F08300BF39
:100A10002046002100F076FD002818BF6FF0070087
:100A200017B0BDE8F083000010B584B08C460146D5
:100A300040F26000C2F20000041D4FF4805ECDE978
:100A40000023204662460223CDF808E000F01CFE99
:100A500060B1204600F0BAFD01466FF06500042940
:100A600008BF6FF0030004B010BD00BF002004B049
:100A700010BD000010B584B08C46014640F2600005
:100A8000C2F20000041D4FF4805ECDE90023204631
:100A900062460223CDF808E000F018FF60B120465E
:100AA00000F094FD01466FF00300042908BF6FF0C9
:100AB000650004B010BD00BF002004B010BD0000F0
:100AC000FEE7000042F62C70C2F2000000F02ABAE5
:100AD00070470000B0B5C0B077A008F081FF4FF2BA
:100AE00029504FF22651C0F60100C0F601014FF423
:100AF0007A7200F02DF900285CD04FF4FA7000F003
:100B00006DFB4FF229504FF22651C0F60100C0F69E
:100B100001014FF47A7200F01BF900284AD04FF41B
:100B2000FA7000F05BFB4FF229504FF22651C0F6ED
:100B30000100C0F601014FF47A7200F009F9C8B360
:100B40004FF4FA7000F04AFB4FF229504FF2265151
:100B5000C0F60100C0F601014FF47A7200F0F8F817
:100B600040B34FF4FA7000F039FB4FF229504FF2C6
:100B70002651C0F60100C0F601014FF47A7200F070
:100B8000E7F8B8B14FF4FA7000F028FB4FF22950A3
:100B90004FF22651C0F60100C0F601014FF47A72FF
:100BA00000F0D6F830B149A040B0BDE8B04008F040
:100BB00017BF00BF4FF22C40C0F6010008F010FF35
:100BC0004FF2265149A0C0F601014FF47A7200F0AD
:100BD000BFF84FF22C55C0F6010547A0294608F092
:100BE0006DFA6C464CA151A320462A4608F076FACD
:100BF00051A500BF204629464FF4FA5200F0A8F84C
:100C00000028F7D14FF24840C0F6010008F0E8FE96
:100C10004FF22654C0F601044AA021464FF47A72DE
:100C200000F096F84FF2BF40C0F6010008F0D8FE81
:100C30004FF233514FF25B526D46C0F60101C0F6E0
:100C40000102284640F25B7308F048FA2846214624
:100C50004FF4FA5200F07CF848B14FF29B40C0F6D6
:100C6000010008F0BDFE4FF4FA6000F0B7FA4FF251
:100C70006F40C0F6010008F0B3FE40F2DC5000F017
:100C8000ADFA40F25000C2F20000002101704FF2B4
:100C9000E640C0F6010008F0A3FE02F04BFF4FF45F
:100CA000FA6000F09BFA4FF2ED30C0F6010008F058
:100CB00097FE40B0B0BD00BF312E205465737469FB
:100CC0006E672041542E2E2E0D0000004572726F6B
:100CD000723A2045535038323636204E6F205265D6
:100CE00073706F6E7365210D0000000041542B433B
:100CF000574D4F44453D3100332E20436F6E6E6596
:100D00006374696E6720746F20576946693A2025BD
:100D1000732E2E2E0D0A000041542B43574A41508A
:100D20003D222573222C2225732200007974323251
:100D300030323437000000005749464920474F54AD
:100D40002049500041542B4349504D55583D3000E7
:100D50002DE9F047064640F2500443F24810894618
:100D6000C2F200044FF0000AC2F200004FF400711A
:100D7000154684F800A0FFF7A3FA42F68C77C2F27A
:100D800000073868082101623046FFF7C0FA82B2D6
:100D900038463146642302F069FC4FF2EA31C0F66E
:100DA000010138460222642302F060FC00F0A4FB3B
:100DB000064600F0A1FB801BA8421DD24FF2AE38C0
:100DC00043F24817C0F60108C2F2000705E000BF71
:100DD00000F092FB801BA8420ED220780028F7D0AA
:100DE0004046394608F06AF938464946FFF773FA33
:100DF00080B984F800A0EBE74FF2C43043F2481208
:100E0000C0F60100C2F20002494608F057F901207D
:100E1000BDE8F0870020BDE8F0870000EFF3108008
:100E200072B600BFFEE70000002804BF0120704733
:100E300090F82510022927D180B50168D0E910CE9D
:100E4000826C0B6823F001030B600B6823F00E0328
:100E50000B60116821F4807111600EF01F010122F6
:100E600002FA01F1CCF80410D0E913215160416D70
:100E700031B10A6822F480720A60D0E916124A6021
:100E80000021BDE8804002E00421C163012101226C
:100E900080F82520002280F82420084670470000B2
:100EA00090F82510022931D180B50168D0E910CE23
:100EB000826C0B6823F001030B600B6823F00E03B8
:100EC0000B60116821F4807111600EF01F02012186
:100ED00001FA02F2CCF80420D0E913325A60426DD4
:100EE00032B1136823F480731360D0E91623536082
:100EF00080F82510826B002180F824100AB19047F9
:100F00000021BDE880400846704700BF0421C1634E
:100F10000121002280F8251080F82420084670471F
:100F2000C06B7047B0B5D0E910C30268DCF80010A0
:100F300003F01F030424D2F800E09C400C4218BFC9
:100F40001EF0040520D102249C400C4218BF1EF064
:100F5000020529D1D940090714D51EF0080108BFA0
:100F6000B0BD116821F00E011160012101FA03F2F8
:100F7000CCF80420C16380F82510416B002280F872
:100F8000242069B9B0BD00BF1168890603D4116877
:100F900021F004011160CCF80440016B0029F1D06C
:100FA000BDE8B040084700BF1168890606D4116843
:100FB00021F00A011160012180F82510CCF80440CD
:100FC000C16A0022002980F82420E9D1DAE7000074
:100FD00000284FF0010100F08B802DE9F04740F22E
:100FE000000CC4F2020C02684FF6F8330CF5816E67
:100FF000CBF6FD73724538BF03F580634CF6CD44E4
:101000001344CCF6CC44A3FB043902F0FC03A3F157
:101010000803A3FB043A0CF580636FF00305D0E9E5
:10102000028607693CBF0023C4F2020305EA990562
:10103000C0E91035022380F82530136847F6F074B4
:10104000A343334344693B4386692343C469334321
:10105000066A2343334343EA080313600CF5026333
:10106000724538BF0CF5006372454FF0060202EB83
:101070001A1238BF4FEA1A1202F01F0201FA02F4E4
:1010800040F684011D440CF50863B8F5804FC4F2A6
:101090000201C3648564046504D1002242602A60B1
:1010A0000C6017E0426802F07F03013A032A4FF018
:1010B00000022B600C600DD8013B01EB830747F861
:1010C0007C2F03F01F0201239340C1F8C030BC31D4
:1010D0003A4601E000210023C0E915210021012248
:1010E000C365C16380F8252080F82410BDE8F0476F
:1010F0000846704790F824C0BCF1010F47D04FF06C
:10110000010C80F824C090F825C0BCF1010F3BD140
:101110002DE9F0414FF0020C80F825C04FF0000C93
:10112000C0F83CC0D0F800C000F14C0E9EE8304042
:10113000DCF80060BEF1000F26F00106CCF800607C
:1011400065601CBFD0E916456560D0E910560127DF
:1011500006F01F06846807FA06F6D0F830806E6045
:10116000CCF804300B46102C04BF13460A46CCF8CA
:101170000830CCF80C20DCF80010B8F1000F09D0D2
:1011800041F00E010EE000BF002180F82410022083
:10119000704700BF21F00401CCF80010DCF800100B
:1011A00041F00A01CCF80010806C0168C90303D536
:1011B000016841F480710160BEF1000F05D0DEF8D6
:1011C000000040F48070CEF80000DCF8000040F031
:1011D0000100CCF800000020BDE8F081B0B5044665
:1011E00000F08AF9054640F20400C2F200004068AF
:1011F000611C18BF044400BF00F07EF9401BA042F0
:10120000FAD3B0BD002908BF70472DE9F04F81B077
:1012100041F2004200F13847C4F6000206234FEACB
:10122000B726904208BF052300F1200E052E38BFD7
:101230004FEAB723002400270025009326E000BFD3
:1012400002680323A3401A4302606FF0030202EA1C
:10125000550607F01C0C5EF806800F2202FA0CF20D
:1012600028EA02024EF80620C2689A43C260426829
:1012700022EA0A02426082689A438260013531FAAA
:1012800005F207F1040704F102043BD0012202FA3F
:1012900005FA1AEA0108F1D040F20042C4F2010254
:1012A000A2F57E7C25F0030307F00C0B0F225CF8FF
:1012B000033002FA0BF9009A03EA090302FA0BF26F
:1012C0009342BDD140F20046C4F20106326840F2BA
:1012D0000C4322EA080232607268C4F2010322EA77
:1012E000080272601A6822EA08021A60B268AB0843
:1012F00022EA0802B2605CF8232022EA09024CF8D4
:1013000023209DE701B0BDE8F04F70472DE9F04F75
:1013100085B00E680390002E00F0E480039841F23F
:10132000004500F12002009200F13842C4F60005A9
:101330004FEAB2270623A84208BF0523052F4FF026
:1013400000054FF000074FF0000838BF4FEAB22306
:10135000019302910BE000BF0E6808F1010836FA14
:1013600008F207F1020705F1040500F0BB80012037
:1013700000FA08F216EA0209EED0D1F804A0032020
:101380000AF0030CACF10106012E00FA07FB13D89A
:1013900003988668D1E9024326EA0B06BB40334333
:1013A0008360436823EA0202CAF3001303FA08F3D6
:1013B0001A43426006E000BF8C68BCF1030F08BF0F
:1013C000012C27D0039904FA07F3CA684FEA480EA4
:1013D00022EA0B026FEA0B001A43BCF1020FCA604B
:1013E0001ED16FF00301009E01EA580205F01C04B3
:1013F0000F2156F802C001FA04FA02992CEA0A0CED
:101400000B69A34043EA0C03B350D1F804A00AF0DF
:10141000030C05E04FF0030C0CFA07F2D043BE4674
:1014200003990CFA0EF30A681AF4403F02EA00022C
:1014300042EA03020A6002998ED041F26003C4F2CC
:1014400002031A6840F2004E42F001021A601A6864
:10145000C4F2010E02F001020492049A28F0030281
:101460004FF6084C7244CFF6FF7C05F00C060F20B7
:1014700052F80C3000FA06F40198A34300FA06F67D
:10148000334342F80C30DEF808204B6842EA090684
:1014900040F20C4CDC0258BF22EA0906CEF8086084
:1014A000C4F2010CDCF800209C0242EA090658BF95
:1014B00022EA0906CCF80060DEF804209C0342EA28
:1014C000090658BF22EA0906CEF80460DEF80020BB
:1014D000DB0342EA090658BF22EA0906CEF800609B
:1014E0003AE700BF05B0BDE8F08F00001823002ADE
:1014F00008BF2823C150704743F24850C2F2000091
:101500000068704790F84120202A03D190F84020CD
:10151000012A01D102207047242280F8412002686C
:10152000136823F001031360136823F480531360DE
:10153000136819431160116841F001011160202105
:1015400080F84110002180F8401000207047000012
:1015500090F84120202A03D190F84020012A01D19F
:1015600002207047242280F841200268136823F08B
:1015700001031360136823F4706343EA01211160CF
:10158000116841F001011160202180F84110002113
:1015900080F8401000207047002804BF01207047E9
:1015A00010B5242180F84110016804460A6822F031
:1015B00001020A6000F0A8FA0020606484F841008B
:1015C000206384F8420084F8400010BD406C7047EE
:1015D00090F8410070470000002804BF01207047C8
:1015E00010B590F8411031B9002180F84010044640
:1015F00000F08CFA2046242180F8411090E8121067
:10160000C3680A68012B22F001020A6024F07062AC
:101610000A618A6822F400428A6003D14CF40042D5
:101620008A6009E04CF40442022B8A6004D14A68C3
:1016300042F4006203E000BF4A6822F400624A609C
:101640004A6800F1100C42F0007242F400424A6015
:10165000CA6822F40042CA609CE81C101A4342EA9D
:101660000422CA60026A42EA0C020A600A6842F076
:1016700001020A6000212022416480F841200163B8
:1016800080F84210002010BD2DE9F04F83B00446D1
:1016900090F84100202807D10C9F4FB10D9E3EB11C
:1016A00094F8400001280BD1022003B0BDE8F08F70
:1016B0004FF400706064012003B0BDE8F08F00BFFC
:1016C00001209A469346884684F84000FFF714FFAD
:1016D000216805468A6912044BD4222084F841000F
:1016E00040204FF0000984F84200C4F8449067623B
:1016F0006685C4F8349049F600034A68CFF6004383
:101700006FF39F285FFA8AF048EA00401A40DDF83C
:1017100038C0104400F50050CDF8088048602046DD
:1017200061462A461E46674602F0B8F9C0B92068ED
:10173000BAF1010F09D04FEA1B21816220463946D8
:101740002A4602F0ABF958B920685FFA8BF1816242
:101750002046402100223B46009502F0EFF848B3B6
:1017600084F84090012003B0BDE8F08F8869000440
:10177000B3D5204619212A4602F032F800289AD122
:10178000FFF7BAFE401B21681A28EFD388690004CE
:10179000ECD5606C40F020006064202084F84100AB
:1017A000002084F8420084F84000012003B0BDE826
:1017B000F08F00BF608D40F20009B0F5807FC0F26D
:1017C000FF1909D3206809F5105350F8041F4FF092
:1017D000FF0C01EA06020BE0B4F82AC020685FFAA9
:1017E0008CF350F8042F324042EA034209F5923359
:1017F00002991A430A434FF0FF0B06F58068026016
:10180000A4F828C012E000BF618D2068218550F83F
:10181000042FC9B202EA080242EA01414FF0007205
:10182000029B114319430160608D98B32046042147
:1018300000223B46009502F081F800287FF43BAF80
:101840002068616A406A0870606A218D01306062B8
:10185000481E2085618D01396185618D0029E3D0A5
:101860000004E1D12046802100223B46009502F091
:1018700065F800287FF41FAF608DB0F5807FC3D37B
:101880002068A4F828B050F8041F4A4601EA08016D
:10189000C6E700BF204639462A4602F0C1F80028B4
:1018A0007FF409AF20682021C16142684EF6000331
:1018B000CFF600631A404260002084F8411084F89B
:1018C000420084F8400003B0BDE8F08F2DE9F04FEE
:1018D00081B0044690F84100202807D10A9F4FB1FB
:1018E0000B9E3EB194F8400001280BD1022001B0BC
:1018F000BDE8F08F4FF400706064012001B0BDE8D6
:10190000F08F00BF01209A4691468B4684F8400034
:10191000FFF7F2FD216805468A6912044DD42120A3
:101920000C9A84F8410040204FF0000849F600432B
:1019300084F84200C4F8448067626685C4F8348045
:10194000CFF600436FF39F2B5FFA8AF017464A6881
:101950005E464BEA00409B46A3F580631A40104464
:1019600040F0807040F400504860204639462A46D6
:1019700002F094F8C0B92068BAF1010F09D04FEA1B
:1019800019218162204639462A4602F087F858B963
:1019900020685FFA89F181622046802100223B465F
:1019A000009501F0CBFF48B384F84080012001B0DE
:1019B000BDE8F08F88690004B1D5204619212A4678
:1019C00001F00EFF002898D1FFF796FD401B21681B
:1019D0001A28EFD388690004ECD5606C40F0200031
:1019E0006064202084F84100002084F8420084F8DC
:1019F0004000012001B0BDE8F08F00BF608D40F2D3
:101A00000009B0F5807FC0F2FF1909D320684FF0BC
:101A1000FF0C50F8041F4B4601EA0B020DE000BF1B
:101A2000B4F82AC020685FFA8CF350F8042F02EA59
:101A30000B0242EA03424FF000731A4332434FF065
:101A4000FF0831460260A4F828C011E0618D2068CB
:101A5000218550F8042FC9B202EA0B0242EA014183
:101A60004FF000721143314333460160608D78B30B
:101A7000204639462A4602F011F800287FF43DAF8F
:101A8000606A216810F8012B8A626062608D0138FB
:101A90006085208D01382085618D0029E6D0000405
:101AA000E4D12046802100223B46009501F046FF0C
:101AB00000287FF422AF608DB0F5807FC6D3206808
:101AC000A4F8288050F8041F4A4601EA0B01C9E730
:101AD000204639462A4601F0A3FF00287FF40DAFC7
:101AE00020682021C16142684EF60003CFF60063F2
:101AF0001A404260002084F8411084F8420084F8C3
:101B0000400001B0BDE8F08F704700007047000052
:101B100040F2040043F24851C2F20000C2F2000158
:101B200040680A68104408607047000080B50320D0
:101B300000F08CF80F2000F009F800281CBF0120ED
:101B400080BD00F02BF8002080BD0000B0B540F251
:101B50000405C2F200056968F1B1044640F21000C4
:101B6000C2F200004FF47A720068B2FBF1F1B0FBF0
:101B7000F1F000F09BFE01460F2C4FF001000AD857
:101B8000002918BFB0BD4FF0FF302146002200F001
:101B900031F800202C60B0BD0120B0BD82B041F210
:101BA0005800C4F20200816841F00101816081683F
:101BB00001F0010101910199016841F0805101603A
:101BC000006800F080500090009802B000F0D6B895
:101BD000002848BF704700F01F01012202FA01F1FE
:101BE0001C2202EAD0004EF20012CEF20002815016
:101BF0007047000010B54EF60C5CCEF2000CDCF81D
:101C00000030C3F3022E8EF00704042C28BF0424F6
:101C1000BEF103034FF0FF3E0EFA04F438BF002379
:101C2000A14399400EFA03F39A43114300F00F02C7
:101C300000F160430901043A03F56443624400285B
:101C400048BF02F10C03197010BD00004EF60C5194
:101C5000CEF200010A684FF6FF031A4060F30A2231
:101C600042F0806040F0FD700860704747F2140158
:101C7000C4F2000151F8142CB0F5007F3CD00028CC
:101C800074D1C86E02F4C06220F48070B2F5806F27
:101C9000C8662FD151F8140C012262F34A2041F892
:101CA000140C40F21000C2F20000006832225043CF
:101CB0004DF68362C4F21B32A0FB0202900C00BFFF
:101CC0000A68520511D5421C0FD00A6852050CD57E
:101CD00058B10A68520508D5012806D00A6852058D
:101CE00003D50228A0F10400EAD10868400544BFEA
:101CF0000320704700207047C86E02F4C06240F4B1
:101D00008070B2F5806FC866F4D151F8140C0122CE
:101D100062F34A2041F8140C40F21000C2F20000B5
:101D20000068322250434DF68362C4F21B32A0FB9E
:101D30000202900C0A68520511D5421C0FD00A68A5
:101D400052050CD558B10A68520508D5012806D0AD
:101D50000A68520503D50228A0F10400EAD10868F8
:101D6000400544BF03207047C4E700BF022060F372
:101D70004A2241F8142C00207047000047F2080066
:101D8000C4F20000016841F4804101607047000026
:101D90002DE9F04182B00446807841F288060007C0
:101DA000C4F2020602D400202FE000BF56F8300C27
:101DB0005FEAC0080BD456F8300C40F0805046F86B
:101DC000300C56F8300C00F080500190019847F22A
:101DD0000007C4F20007386840F480703860FFF7ED
:101DE0008BFB05463868C00500F1D680FFF784FB01
:101DF000401B0228F6D90320B8F1000F05D456F88D
:101E0000301C21F0805146F8301C2168CA0713D1DC
:101E10008A0719D44A071FD40A0725D48A062BD467
:101E20004A0631D40A0637D4CA053DD48A0543D4BC
:101E30004A0549D457E000BF3268636822F00302C4
:101E40001A4332608A07E5D53268A36822F00C0293
:101E50001A4332604A07DFD53268E36822F0300265
:101E60001A4332600A07D9D53268236922F0C002CA
:101E70001A4332608A06D3D53268636922F440621D
:101E80001A4332604A06CDD53268A36922F4405223
:101E90001A4332600A06C7D53268E36922F4404229
:101EA0001A433260CA05C1D53268236A22F440322F
:101EB0001A4332608A05BBD53268636A22F4402235
:101EC0001A4332604A050ED53268A36A22F44012E2
:101ED0001A43B3F5801F326005D156F87C2C42F4CA
:101EE000801246F87C2C0A050ED53268E36A22F48B
:101EF00040021A43B3F5800F326005D156F87C2CAE
:101F000042F4801246F87C2CCA040ED53268236B4A
:101F100022F040721A43B3F1807F326005D156F847
:101F20007C2C42F4801246F87C2C8A040ED5326850
:101F3000636B22F040621A43B3F1006F326005D147
:101F400056F87C2C42F4801246F87C2C4A040ED5BC
:101F50003268A36B22F040621A43B3F1006F326023
:101F600005D156F87C2C42F4801246F87C2C0904EA
:101F70000ED53168E26B21F040511143B2F1805F20
:101F8000316005D156F87C1C41F4803146F87C1C48
:101F900002B0BDE8F08100BFB06810F4407010D00E
:101FA000216C88420BD0B068B16820F4407041F4D5
:101FB0008031B160B16821F48031B160B060C00798
:101FC0000CD1B068216C20F440700843B060002050
:101FD000B8F1000F3FF519AF11E700BFFFF78CFA1A
:101FE000054641F2883700BFB0688007E9D4FFF7A3
:101FF00083FA401BB842F7D9FDE600002DE9F0470F
:10200000002863D042F2000AC4F2020A0446DAF859
:1020100000000D4600F00F0088420CD2DAF80000F4
:1020200020F00F002843CAF80000DAF8000000F0A2
:102030000F00A8424AD1216841F20808C807C4F23B
:10204000020803D1880740F1D080B5E0606858F8F5
:10205000082C022838D003283CD1920136D5D8F874
:102060000420D8F8043042F20046C3F3031302F010
:102070000302D8F804700133C0F2F406032A04BF47
:1020800041F20026C0F27A06B6FBF3F2D8F804302B
:10209000C7F306277A43C3F34163022707EB4303E1
:1020A000B2FBF3F24BF20043C0F2C4439A4259D957
:1020B000D8F8002012F0F00F49D0890752D5A16856
:1020C00000294FD143E000BF910305D40120BDE8B2
:1020D000F08700BF5105F9D5D8F8001001F00C01C8
:1020E00004293FD0D8F8001001F00C01082939D09C
:1020F000D8F8001001F00C010C2933D1D8F80410E5
:10210000D8F8042042F20047C2F3031201F00301A1
:10211000D8F804300132C0F2F407032904BF41F2B9
:102120000027C0F27A07B7FBF2F1D8F80420C3F316
:1021300006235943C2F34162022303EB4202B1FB7F
:10214000F2F14BF20042C0F2C44291420AD9D8F8EF
:102150000010082262F307114FF00109C8F80010BF
:1021600002E000BF4FF00009D8F8001021F0030191
:102170000843C8F80000FFF7BFF9064641F2883768
:10218000D8F80000616800F00C00B0EB810F07D0B8
:10219000FFF7B2F9801BB842F2D90320BDE8F087FF
:1021A0002168880708D4B9F1000F1ED0D8F80000C4
:1021B00020F0F00017E000BF480705D5D8F8000070
:1021C00040F4E060C8F80000080706D5D8F8000021
:1021D000072262F30D20C8F80000D8F80000A268BA
:1021E00020F0F0001043C8F80000DAF8000000F01A
:1021F0000F00A8421BD9DAF8000020F00F00284396
:10220000CAF80000FFF778F9064641F2883700BFA8
:10221000DAF8000000F00F00A84207D0FFF76CF9D1
:10222000801BB842F4D90320BDE8F0872168480735
:1022300007D5D8F80000E26820F4E0601043C8F841
:102240000000080708D5D8F80000216920F4605084
:1022500040EAC100C8F80000D8F8000042F200418E
:10226000C0F2F40100F00C00042808462DD0D8F884
:10227000000000F00C00082841F20020C0F27A00B3
:1022800023D0D8F8002002F00C020C2A1CD1D8F878
:102290000420D8F8043002F00302C3F30313D8F883
:1022A00004700133032A08BF0146B1FBF3F0D8F8EC
:1022B0000410C7F30627C1F341610222784302EB01
:1022C0004101B0FBF1F000E00020D8F8001049F621
:1022D0000422C1F30311C0F60002515C40F2100267
:1022E00001F01F0120FA01F140F20400C2F20000E7
:1022F0000068C2F200021160BDE8F047FFF726BC9B
:1023000040F2100041F20801C2F20000C4F20201E2
:102310000068096849F61422C1F30221C0F60002E0
:10232000515C01F01F01C8407047000040F21000EE
:1023300041F20801C2F20000C4F20201006809681B
:1023400049F61422C1F3C221C0F60002515C01F02B
:102350001F01C8407047000041F20C01C4F20201A5
:1023600051F8040C42F20042C0F2F40200F00C00FA
:102370000428104608BF704751F8040C00F00C0008
:10238000082841F20020C0F27A0025D051F8043C20
:1023900003F00C030C2B1CBF0020704780B5D1F854
:1023A00000C00B680CF0030CC3F3031E0B680EF1A6
:1023B000010EBCF1030F08BF02460968B2FBFEF034
:1023C000C3F30623C1F341610222584302EB4101EA
:1023D000B0FBF1F0BDE8804070470000002804BF6A
:1023E000012070472DE9F04182B00446007841F2A7
:1023F0000006C007C4F202061ED1207880073DD433
:102400002078000764D42078400700F18780207886
:10241000800600F1D980E569002D00F04282B068A5
:1024200000F00C000C2840F03181012D40F08E812D
:10243000012002B0BDE8F081B06800F00C01F06846
:10244000082961D0032281F00C0122EA000008442F
:10245000B0FA80F0400957D161683068B1F5803F2B
:1024600007D0B1F5A02F40F0E38040F48020306029
:10247000306840F480303060E4E000BFB068F1685C
:1024800000F00C00042871D001F0030180F00C0072
:1024900081F002010844B0FA80F0400966D1E16899
:1024A0003068002900F0E08040F480703060FFF771
:1024B00023F805463068400500F10A81FFF71CF853
:1024C000401B0228F6D9032002B0BDE8F08100BF0E
:1024D0006169D6F89400002900F0948040F0010072
:1024E000C6F89400FFF708F8054600BFD6F8940038
:1024F00080073FF588AFFEF7FFFF401B0228F5D9A4
:10250000032002B0BDE8F081306880037FF575AF2D
:10251000606800287FF471AF3EE000BFB06D5FEAF5
:10252000C00808D4B06D40F08050B065B06D00F0C8
:1025300080500190019847F20007C4F20007386804
:10254000C0052DD4386840F480703860FEF7D4FFA1
:10255000054600BF3868C00522D4FEF7CDFF401BFA
:102560000228F7D9032002B0BDE8F08130684005A9
:1025700001D5E06880B17068216920F0FE4040EA32
:102580000160706040F20400C2F200000068FFF7D2
:10259000DDFA00283FF434AF012002B0BDE8F0813D
:1025A000A168D6F89000012908D0052940F0AE8036
:1025B00040F00400C6F89000D6F8900040F001000A
:1025C000C6F89000AEE000BFA169D6F898000029D7
:1025D00000F0868040F00100C6F89800FEF78CFFFE
:1025E000054600BFD6F8980080073FF514AFFEF708
:1025F00083FF401B02284FF00300F3D902B0BDE86F
:10260000F08100BF20F00100C6F89400FEF774FFCF
:10261000054600BFD6F8940080077FF5F4AEFEF7BC
:102620006BFF401B0228F5D9032002B0BDE8F08102
:1026300020F4803030603068002920F48020306041
:1026400000F0BE80FEF758FF054600BF30688003EB
:102650003FF5D3AEFEF750FF401B6428F6D90320A8
:1026600002B0BDE8F08100BF20F480703060FEF75A
:1026700043FF0546306840057FF5C2AEFEF73CFFDC
:10268000401B02284FF00300F4D9B7E7306820F070
:1026900080703060FEF730FF022D05460CD100BF80
:1026A0003068800140F1B880FEF726FF401B022809
:1026B0004FF00300F4D9A1E73068800140F1EA80CF
:1026C000FEF71AFF401B02284FF00300F4D995E7EC
:1026D0007068216920F0FE4040EA016070608FE67A
:1026E00020F00100C6F89800FEF706FF054600BF7F
:1026F000D6F8980080077FF58EAEFEF7FDFE401BF2
:1027000002284FF00300F3D978E700BF20F0010062
:10271000C6F89000D6F89000002920F00400C6F812
:1027200090005DD0FEF7E8FE054641F2883700BF15
:10273000D6F89000800765D4FEF7DEFE401BB84255
:10274000F6D9032002B0BDE8F08100BFF068216A2D
:1027500000F003028A427FF41FAF626A6FF00F033A
:1027600000F0F00103EB021291427FF415AFA16A71
:1027700000F4FE42B2EB012F7FF40EAFE16A00F0ED
:102780007842B2EBC16F7FF407AF226B0023CFF624
:10279000E07303EA025200F4C001A2F50012914274
:1027A0007FF4FAAE616B4FF07E4202EA016100F005
:1027B000C06001F17E4188427FF4EEAE71E000BF5F
:1027C000FEF79AFE054600BF306880037FF515AE20
:1027D000FEF792FE401B64284FF00300F4D90DE78A
:1027E000FEF78AFE054641F2883700BFD6F8900012
:1027F000800707D5FEF780FE401BB8424FF003006C
:10280000F4D9FBE6B8F1000F3FF501AEB06D20F052
:102810008050B065FBE500BFF06848F20C01C0F2E3
:102820009F1104F1200700EA010C8ECF6FF00F001A
:10283000D4E90C5400EB02100022CFF6E07241EA1A
:102840000C0102EA05520843A2F500124FF07E4542
:1028500040EA032005EA0465104305F17E4540EA9D
:10286000C7602843F060306840F080703060F068E6
:1028700040F08070F060FEF73FFE04463068800153
:102880000FD4FEF739FE001B02284FF00300F5D9E4
:10289000B4E600BFF0684FF6FC71CFF6EE61084079
:1028A000F060002002B0BDE8F0810000411E002071
:1028B000B0EB116F1CBF012070474EF21002CEF238
:1028C000000251604EF62351CEF20001F0230B704E
:1028D000072190601160704790F88410012904BFAF
:1028E000022070472421C0F8881001680A680B682C
:1028F00022F0005223F001030B60002343660A60BC
:102900002021C0F8881080F8843000207047000033
:10291000D0F88C30202B1CBF0220704710B5044625
:1029200000294FF0010018BF002A01D110BD00BFDF
:10293000E06600202067204602F016FC0028F5D152
:10294000E06E01281CBF012010BD2068102101622B
:10295000206850E8000F216840F0100041E80002B4
:1029600002B3206850E8000F216840F0100041E8F1
:102970000002BAB1206850E8000F216840F0100052
:1029800041E8000272B1206850E8000F216840F071
:10299000100041E80002002A4FF0000008BF10BDFF
:1029A000D6E700BF002010BD006844F20042C4F228
:1029B0000002904218BF704770B543F2481543F2C9
:1029C00048360C46C2F20005C2F2000628463146DF
:1029D0002246FDF74EFC0020285540F25000C2F27E
:1029E000000001214480017042F68C70C2F20000A8
:1029F00031464FF40072FFF78BFF42F62C70C2F2A3
:102A000000000068016821F004010160BDE8704029
:102A1000704700007047000090F88420012A04BF2E
:102A200002207047B0B52422C0F888200268D0F890
:102A300064E0D2F800C01368BEF1000F23F0010378
:102A40001360936823F0606341EA0301916019D039
:102A5000936891684FF2403E490FC0F6010E4FF265
:102A600048351EF80140C0F60105695CC3F34263B6
:102A7000E400B4FBF1F11EF80340EB5CE500B5FBAC
:102A8000F3F301E001210123A0F86A102021A0F84E
:102A90006830C2F800C0C0F88810002180F88410A7
:102AA0000020B0BD90F88420012A04BF02207047A6
:102AB000B0B52422C0F888200268D0F864E0D2F8CB
:102AC00000C01368BEF1000F23F001031360936888
:102AD00023F0604341EA0301916019D09368916843
:102AE0004FF2403E490FC0F6010E4FF248351EF836
:102AF0000140C0F60105695CC3F34263E400B4FB26
:102B0000F1F11EF80340EB5CE500B5FBF3F301E0E7
:102B100001210123A0F86A102021A0F86830C2F832
:102B200000C0C0F88810002180F884100020B0BDDB
:102B30007047000070470000B0B504460068D4F844
:102B40008810D4F88C508268120640F182802129C6
:102B500040F07F80206850E8020F216820F080005C
:102B600041E80202DAB1206850E8020F216820F043
:102B7000800041E8020292B1206850E8020F21680B
:102B800020F0800041E802024AB1206850E8020FBC
:102B9000216820F0800041E80202002ADAD1E06FCB
:102BA00040B1FEF741F928B1E06FFEF7B9F92028EE
:102BB00000F08980206850E8000F216820F0C000F4
:102BC00041E80002BAB3206850E8000F216820F005
:102BD000C00041E8000272B3206850E8000F21688D
:102BE00020F0C00041E800022AB3206850E8000F3E
:102BF000216820F0C00041E80002002ADAD11AE082
:102C0000206850E8020F216820F4000041E8020229
:102C1000DAB1206850E8020F216820F4000041E892
:102C2000020292B1206850E8020F216820F40000EF
:102C300041E802024AB1206850E8020F216820F4FE
:102C4000000041E80202002ADAD12020C4F88800FE
:102C50002068806840064FF0000040F1B280222DCD
:102C600018BFB0BD206850E8020F216820F0400076
:102C700041E80202DAB1206850E8020F216820F032
:102C8000400041E8020292B1206850E8020F21683A
:102C900020F0400041E802024AB1206850E8020FEB
:102CA000216820F0400041E80202002ADAD1D4F87D
:102CB000800068B1FEF7B8F850B1D4F88000FEF794
:102CC0002FF9202804D11020C4F890000320B0BDB3
:102CD000206850E8000F216820F4907041E800025D
:102CE000DAB1206850E8000F216820F4907041E8C4
:102CF000000292B1206850E8000F216820F4907023
:102D000041E800024AB1206850E8000F216820F431
:102D1000907041E80002002ADAD14FF6FE70CEF63C
:102D2000FF7000BF216851E8021F2268014042E89D
:102D30000213C3B1216851E8021F2268014042E832
:102D4000021383B1216851E8021F2268014042E862
:102D5000021343B1216851E8021F2268014042E892
:102D60000213002BDED1E06E012824D1206850E848
:102D7000000F216820F0100041E80002DAB120685D
:102D800050E8000F216820F0100041E8000292B1E5
:102D9000206850E8000F216820F0100041E8000290
:102DA0004AB1206850E8000F216820F0100041E887
:102DB0000002002ADAD12020C4F88C000020E0664E
:102DC0006067B0BD006844F20041C4F2000188426F
:102DD00018BF704710B542F68C74C2F2000443F27B
:102DE0004831C2F2000120464FF40072FFF790FD17
:102DF000D4F880000068016821F004010160BDE89A
:102E00001040704770B5026840F62F04D36911680E
:102E100096681C40202C0BD101F0200406F0805550
:102E20002D1916D0416F61B3BDE87040084700BF4F
:102E300040F60F052B420CD00125C1F2000506EA31
:102E4000050C40F22015C0F200450D4015EB0C05B5
:102E500024D1C46EDD0615D5012C13D111F0100557
:102E600010D0102111629168490661D4B0F85C104D
:102E7000B0F85E20B0F85E30002B18BF914240F0F1
:102E8000518270BDDD0215D516F4800512D04FF4C5
:102E900080111162BDE87040FFF74CBEDD0718BF1E
:102EA00011F4807540F020819D0706F0010E00F1BD
:102EB000278130E11A0606D501F0800206F40006EB
:102EC000921940F0AF825A0640F1028111F040029F
:102ED00000F0FE80016851E8001F026821F0400107
:102EE00042E80013DBB1016851E8001F026821F0DD
:102EF000400142E8001393B1016851E8001F0268E5
:102F000021F0400142E800134BB1016851E8001F75
:102F1000026821F0400142E80013002BDAD12021A1
:102F2000C0F8881000218167BDE8704000F054BCF3
:102F3000D0F880100A685368B0F85C4099B2002954
:102F400000F0B880A14280F0B580A0F85E30116832
:102F5000890600F1A38000BF016851E8001F0268E4
:102F600021F4807142E80013E3B1016851E8001FC9
:102F7000026821F4807142E800139BB1016851E8B6
:102F8000001F026821F4807142E8001353B1016808
:102F900051E8001F026821F4807142E80013002B01
:102FA000DAD100BF016851E8021F026821F0010177
:102FB00042E80213BBB3016851E8021F026821F026
:102FC000010142E8021373B3016851E8021F02686D
:102FD00021F0010142E802132BB3016851E8021FFE
:102FE000026821F0010142E80213002BDAD11AE055
:102FF000016851E8021F026821F0400142E8021313
:10300000DBB1016851E8021F026821F0400142E88B
:10301000021393B1016851E8021F026821F04001D8
:1030200042E802134BB1016851E8021F026821F027
:10303000400142E80213002BDAD12021C0F88C10A5
:103040000021C166016851E8001F026821F01001EB
:1030500042E80013DBB1016851E8001F026821F06B
:10306000100142E8001393B1016851E8001F0268A3
:1030700021F0100142E800134BB1016851E8001F34
:10308000026821F0100142E80013002BDAD1D0F8D9
:10309000801004460846FDF7C7FE2046022101675E
:1030A000B0F85C10B0F85E20891A89B2BDE87040B3
:1030B000FFF77ABC8C427FF4E4AE126892067FF58B
:1030C000E0AE02220267BDE87040FFF76DBC00BFB2
:1030D0001A0240F1B38111F0804200F0AF81BDE8E7
:1030E0007040FFF725BD00BF01251562D0F8905054
:1030F00045F00105C0F890509D0706F0010E0AD575
:10310000BEF1000F07D002241462D0F8904044F0C2
:103110000404C0F890405C070AD5BEF1000F07D048
:1031200004251562D0F8905045F00205C0F8905083
:103130001D070CD501F0200555EA0C0507D0082520
:103140001562D0F8905045F00805C0F890501D0564
:103150000BD511F0806508D04FF400651562D0F8EA
:10316000905045F02005C0F89050D0F89050002DB8
:103170003FF487AE9B060BD501F0200106F080538B
:10318000C91805D0416F19B1044688472268204606
:10319000D0F89010926801F0280102F040028918DE
:1031A00006D10446FFF70EFE0020C4F8900070BD63
:1031B000016851E8001F026821F4907142E8001391
:1031C000DBB1016851E8001F026821F4907142E808
:1031D000001393B1016851E8001F026821F4907157
:1031E00042E800134BB1016851E8001F026821F466
:1031F000907142E80013002BDAD14FF6FE71CEF643
:10320000FF7100BF026852E8022F03680A4043E8DA
:103210000226C6B1026852E8022F03680A4043E85A
:10322000022686B1026852E8022F03680A4043E88A
:10323000022646B1026852E8022F03680A4043E8BA
:103240000226002EDED1C16E012924D1016851E889
:10325000001F026821F0100142E80013DBB1016891
:1032600051E8001F026821F0100142E8001393B1F9
:10327000016851E8001F026821F0100142E80013C4
:103280004BB1016851E8001F026821F0100142E8CB
:103290000013002BDAD12021C0F88C100021C16668
:1032A000026841679168490640F1C480016851E8AD
:1032B000021F026821F0400142E80213DBB10168FD
:1032C00051E8021F026821F0400142E8021393B165
:1032D000016851E8021F026821F0400142E8021330
:1032E0004BB1016851E8021F026821F0400142E839
:1032F0000213002BDAD1D0F88010002900F09A8058
:1033000044F64132C0F60002044608468A63FDF7DF
:10331000C7FD00283FF4B5ADD4F88000816BBDE84F
:1033200070400847891A00BF026852E8002F0368FE
:1033300022F4907243E80026DEB1026852E8002FC2
:10334000036822F4907243E8002696B1026852E8BE
:10335000002F036822F4907243E800264EB1026801
:1033600052E8002F036822F4907243E80026002EF2
:10337000DAD14FF6FE72CEF6FF7200BF036853E853
:10338000023F0668134046E80235C5B1036853E8BA
:10339000023F0668134046E8023585B1036853E8EA
:1033A000023F0668134046E8023545B1036853E81A
:1033B000023F0668134046E80235002DDED1202288
:1033C000C0F88C200022C266426700BF026852E843
:1033D000002F036822F0100243E80026DEB10268E5
:1033E00052E8002F036822F0100243E8002696B14D
:1033F000026852E8002F036822F0100243E800261A
:103400004EB1026852E8002F036822F0100243E830
:103410000026002EDAD1022289B20267BDE8704090
:10342000FFF7C2BA816F00293FF42BADBDE87040B1
:10343000084700BFBDE87040FFF7C4BCDA017FF564
:1034400020ADB1F1FF3FC8BF70BDBDE87040FFF7D0
:10345000E1BA000010B5D0B10446D0F8880028B910
:10346000002084F88400204600F026F82420C4F8C8
:1034700088002068A16A026822F00102026011B18E
:10348000204601F033FA204601F022FD10B1012060
:1034900010BD00BF2168486820F4904048608868EB
:1034A00020F02A008860086840F0010220460A6087
:1034B000BDE8104001F08EBA70B598B00446002007
:1034C0001790CDE91500CDE9130002A84421FCF7BF
:1034D000F7FE206844F20041C4F2000188426DD03A
:1034E00044F60001C4F20001884235D044F60041A0
:1034F000C4F2000188425FD10820029002A8FEF7C2
:1035000047FC002818BFFDF789FC41F24C00C4F2CB
:103510000200C16841F40021C160C16801F40021CA
:1035200001910199016841F004010160006800F017
:103530000400019001984FF4406013900220149011
:103540000020CDE915000520179040F20040C4F698
:10355000000000F580602CE00420029002A8FEF735
:1035600017FC002818BFFDF759FC41F24C00C4F2CB
:103570000200C16841F48021C160C16801F480216A
:1035800001910199016841F002010160006800F0B9
:103590000200019001984FF44060139002201490B3
:1035A0000020CDE915000720179040F20040C4F636
:1035B000000013A9FDF7AAFE18B070BD022502A8ED
:1035C0000295FEF7E5FB002818BFFDF727FC41F246
:1035D0004C00C4F20200C168002641F40031C16011
:1035E000C16801F4003101910199016841F00101C4
:1035F0000160006813A900F00100019001980C20FF
:10360000CDE91305072017904FF09040CDE91566DE
:10361000FDF77CFE42F62C750820C2F20005C4F2CC
:1036200002001A2185E843004FF4805080222023B5
:1036300028622846C5E90362C5E90566EB61FDF726
:10364000C7FC002818BFFDF7E9FB26200021002257
:10365000C4F88050AC62FEF7CDFA2620FEF7B8FA27
:1036600018B070BD70470000704700002DE9F043AE
:1036700081B00446D0F88800202809D18846002966
:103680004FF0010018BF002A06D101B0BDE8F08359
:10369000022001B0BDE8F0830020C4F89000212092
:1036A0001D46C4F888001646FDF726FFA4F85460AE
:1036B000A4F85660A1680646B1F5805F02D1206982
:1036C000002843D047464FF00008B4F85600216860
:1036D000002841D005F10109C86900060ED4B9F1EE
:1036E000000F0FD0002D61D0FDF706FF801BA84210
:1036F0005ED821680868C8690006F5D587B117F853
:10370000010B12E0C8690006F8D4C86900065CBF66
:10371000C8695FEA0060F1D4C8690006F2D5EDE738
:1037200038F8020B00276FF35F208862D4F8880016
:1037300000F0210021284BD1B4F856000138A4F83C
:103740005600B4F856000028C6D105E00027B4F8AA
:10375000560021680028BDD1C86940061ED42DB38B
:10376000681C14D1C86940062AD4C869400627D409
:10377000C869400624D4C86940064FF00000F1D55E
:103780000DE000BF20680168C069400618D4FDF74D
:10379000B3FE801BA842F5D90AE000BF002020211B
:1037A000C4F8881001B0BDE8F08300BFFDF7A4FEA7
:1037B00003202021C4F8881001B0BDE8F08300BFC9
:1037C00000202021C4F8881001B0BDE8F08300BFBC
:1037D000012001B0BDE8F08370470000FEE7000063
:1037E00070B50446006815468369DA0602D40021E4
:1037F000002266E00E461021C161816989065CD411
:10380000711C50D02EBBFDF777FE2068426894F8FB
:10381000421083691B040BD512F4804208D1202981
:1038200006D0416841F480414160FDF765FE0546E0
:1038300020688169890605D4FDF75EFE401B1A28C1
:10384000F6D328E081698906DDD536E081698906ED
:1038500033D4FDF751FE411B2068B142F6D94268CE
:1038600094F8421083691B040CD512F4804209D1EC
:10387000202907D0416841F480414160FDF73CFEBA
:10388000054600BF206881698906DFD4FDF734FE54
:10389000401B1A28F6D3206801228169242110E0F8
:1038A0008169890609D48169890606D481698906F6
:1038B0005CBF81695FEA8161F2D52021C16101228B
:1038C00004218369DE0505D54FF4807241F00101C2
:1038D000C26101225E0505D49B050AD472B900209D
:1038E00070BD00BF41F008014FF480629B05C261CA
:1038F00004D541F002014FF40072C261826992075F
:1039000044BF002282628269D20703D1826942F0F9
:103910000102826142684EF60003CFF600631A404E
:103920004260606C08436064202084F841000020FD
:1039300084F8420084F84000012070BD2DE9F04178
:103940000446006880690840401AB0FA80F04009D7
:10395000904221D1DDF8188015460E461F46581CAE
:1039600027D0CFBB204600214246FFF739FF002871
:1039700053D1FDF7C1FD206881693140891BB1FA3F
:1039800081F14909A9423CD080693040801BB0FADE
:1039900080F04009A842E5D00020BDE8F08100BFDA
:1039A000206880693040801BB0FA80F04009A8424E
:1039B000F2D120464FF0FF314246FFF711FF0028B9
:1039C000EED00120BDE8F08180693040801BB0FA64
:1039D00080F04009A842DFD1204639464246FFF731
:1039E000FFFED0B9FDF788FDA0EB08012068B942C1
:1039F000EAD981693140891BB1FA81F14909A942AB
:103A0000E2D1606C40F020006064202084F8410026
:103A1000002084F8420084F840000120BDE8F081D5
:103A200070B5044600688069800635D415460E4698
:103A300019B928E0806980062ED4204631462A46EE
:103A4000FFF7CEFE30BBFDF757FD411B2068B142AA
:103A5000F0D981698906EDD4606C40F02000606483
:103A6000202084F84100002084F8420084F84000BF
:103A7000012070BDFDF740FD206881698906EBD506
:103A80008069800608D4204600212A46FFF7A8FE58
:103A90000028EFD0012070BD002070BD70B5044635
:103AA00000688069800714D415460E46481C17D05C
:103AB0001EBB00BF204600212A46FFF791FEB8BB7F
:103AC000FDF71AFD20688169890725D5806980077F
:103AD000F0D5002070BD00BF206880698007F8D451
:103AE00020464FF0FF312A46FFF77AFE0028F3D038
:103AF000012070BD80698007EBD4204631462A46FC
:103B0000FFF76EFEA0B9FDF7F7FC411B2068B1423C
:103B1000F0D981698907EDD4606C40F020006064C1
:103B2000202084F84100002084F8420084F84000FE
:103B3000012070BD10B5C8B04BF21060C0F201009A
:103B4000089044F60450C5F25140099040F25440A8
:103B5000C0F2C2000A901E20ADF82C00142008AC60
:103B60008DF82E0004F10F002BA11422FCF781FB2D
:103B70004FF42060ADF8430047F24910C3F65600F9
:103B8000CDF8450043F24D40C7F23830CDF849003A
:103B900045F25110C8F600004FF26C61CDF84D00AF
:103BA00004F13100C0F601018822FCF762FB4FF2FC
:103BB0004D516C46C0F601012046B92205F08EFA3F
:103BC000C820FDF70BFB4FF22451C0F6010120463F
:103BD00040F6B832FDF7BCF838B143F24810C2F2F3
:103BE00000003E21FCF789FB80B142F68C70C2F2E6
:103BF000000008A9B9224FF4FA63FFF737FD15A0BA
:103C0000B92105F05BFA48B010BD00BF08A005F06F
:103C1000E7FE48B010BD00BF5361747572617469EE
:103C20006F6E5F446574656374696F6E00000000B9
:103C30004D51545420436F6E6E6563743A20415465
:103C40002B43495053454E442054696D656F75743C
:103C5000210D00004D51545420436F6E6E65637406
:103C6000205061636B65742053656E742E204C6523
:103C70006E3A2025640D0A0080B582B041F24800FA
:103C8000C4F202000168002241F0040101600168F1
:103C900001F0040101910199016841F00101016005
:103CA0000068002100F00100009000980B20FDF753
:103CB000A1FF0B2002B0BDE88040FDF789BF0000E6
:103CC0002DE9F04186B0002641F24C000596CDE981
:103CD0000366CDE90166C4F20200016840F6000403
:103CE00041F0200101600168C4F6000401F02001E8
:103CF000009100990168002241F0400101600168D3
:103D00004FF4707701F0400100910099016841F093
:103D100001010160016801F0010100910099016851
:103D200041F004010160016801F004010091009973
:103D3000016841F00201016000684FF4707100F009
:103D40000200009000982046FDF7D0FB4FF0904015
:103D50004FF4E05100224FF4E058FDF7C7FB4FF459
:103D6000806001ADCDE9010604F580502946039637
:103D7000FDF7CCFA0720CDE90106A4F580602946BD
:103D80000396FDF7C3FA0197012720462946CDE99E
:103D900002760496FDF7BAFA4FF090402946CDE935
:103DA0000187CDE90366FDF7B1FA06B0BDE8F08101
:103DB00070B5044645F60000C4F2000046F69F6167
:103DC000C5F291010022012384E80F002046C4E9D6
:103DD0000422C4E906222262FDF7FEFB05462046C6
:103DE0000021FDF78FFB064620460021FDF7B0FBC2
:103DF0003043284318BF012070BD0000B0B582B029
:103E00000020FCF713FD85A005F0EAFD4FF090407F
:103E10004FF480510022FDF769FB4FF090404FF4C2
:103E200080610022FDF762FB0220FDF7D7F94FF019
:103E300090404FF4805101220125FDF757FB4FF0D0
:103E400090404FF480610122FDF750FB0220FDF706
:103E5000C5F94FF090404FF480510022FDF746FB2A
:103E60004FF090404FF480610022FDF73FFB4FF090
:103E700090404FF480510122FDF738FB0220FDF7FE
:103E8000ADF94FF218604FF25E61C0F60100C0F666
:103E9000010105F013F9002001F0DEFB38B14FF20B
:103EA000CB50C0F601000021002505F007F940F2D3
:103EB000B804C2F200044FF090404FF48051002249
:103EC0002570FDF713FB0220FDF788F94FF218600B
:103ED0004FF25761C0F60100C0F6010105F0EEF89F
:103EE0000120012501F0B8FB38B14FF2CB50C0F6EC
:103EF0000100012105F0E2F800254FF090404FF459
:103F00008061012265700125FDF7F0FA0220FDF7BE
:103F100065F94FF218604FF26361C0F60100C0F618
:103F2000010105F0CBF8022001F096FB38B14FF209
:103F3000CB50C0F60100022105F0C0F800254FF07B
:103F400090404FF480610022A570FDF7CFFA2078F1
:103F500008B34FF090404FF480510122FDF7C6FAAC
:103F60004FF22E604FF25E61C0F60100C0F6010113
:103F7000542205F0A3F80020542101F0EDFB01A923
:103F8000002001F0D1FB019A4FF2B050C0F60100C1
:103F9000002105F093F86078D0B14FF22E604FF217
:103FA0005761C0F60100C0F60101562205F086F8FF
:103FB0000120562101F0D0FB01A9012001F0B4FB42
:103FC000019A4FF2B050C0F60100012105F076F8D9
:103FD000A07808B34FF090404FF480610122FDF7C4
:103FE00085FA4FF22E604FF26361C0F60100C0F611
:103FF0000101582205F062F80220582101F0ACFBC3
:1040000001A9022001F090FB019A4FF2B050C0F6D6
:104010000100022105F052F802B0B0BD35334C3832
:104020004131204D756C74692053656E736F722039
:1040300052616E67696E672064656D6F2061707094
:104040006C69636174696F6E0000000010B590B018
:1040500040F2B804C2F20004E07898B140F2F001F6
:10406000C2F20001002001F0DFFA40F2F4510446F0
:10407000C2F20001022001F0D7FA204344D010B070
:1040800010BD00BF032004F1040C142128220023DA
:104090008CE80F00A2A0636105F0A2FC2078012843
:1040A00010D1211D002001F0A7FA0020012101F00C
:1040B0006BFB38B102464FF2F350C0F6010000210D
:1040C00004F0FCFFA078012810D1211D022001F08E
:1040D00093FA0220012101F057FB38B102464FF25A
:1040E000F350C0F60100022104F0E8FF91A005F0B2
:1040F00077FC40F6B830FDF771F898A005F070FC39
:104100000120E07010B010BD40F2F00040F2F45118
:10411000C2F20000C2F200016A4600F035FA9DEDDD
:10412000002A9FED990A9DED013A9DED024AB4EEF9
:10413000402A9DED035AF1EE10FAB4EE403AC8BFA2
:10414000B0EE402AB2EE091AF1EE10FAC8BFB0EE96
:10415000403AB4EE404A22EE012A23EE013AF1EE53
:1041600010FAC8BFB0EE404AB4EE405A33EE022A0D
:1041700024EE013AF1EE10FAC8BFB0EE405A9DEDC0
:10418000044A33EE022AB4EE404A25EE013AF1EE3B
:1041900010FAC8BFB0EE404A33EE022A24EE013ACC
:1041A0009DED054A33EE022AB4EE404AF1EE10FAD4
:1041B000C8BFB0EE404A24EE013A9DED064A33EE08
:1041C000022AB4EE404AF1EE10FAC8BFB0EE404AFF
:1041D00024EE013A9DED074A33EE022AB4EE404A3E
:1041E000F1EE10FAC8BFB0EE404A24EE013A9DED60
:1041F000084A33EE022AB4EE404AF1EE10FAC8BF84
:10420000B0EE404A24EE013A9DED094A33EE022A0F
:10421000B4EE404AF1EE10FAC8BFB0EE404A24EEC8
:10422000013A9DED0A4A33EE022AB4EE404AF1EE1D
:1042300010FAC8BFB0EE404A24EE013A9DED0B4A99
:1042400033EE022AB4EE404AF1EE10FAC8BFB0EEE7
:10425000404A24EE013A9DED0C4A33EE022AB4EEB8
:10426000404AF1EE10FAC8BFB0EE404A24EE013ADF
:104270009DED0D4A33EE022AB4EE404AF1EE10FAFB
:10428000C8BFB0EE404A24EE013A9DED0E4A33EE2F
:10429000022AB4EE404AF1EE10FAC8BFB0EE404A2E
:1042A00024EE013A9DED0F4A33EE022AB4EE404A65
:1042B000F1EE10FAC8BFB0EE404A24EE011A9FEDAD
:1042C000333A31EE021A81EE031A9FED312AB6EE2F
:1042D000003A21EE000A20EE021AB7EE002A31EE73
:1042E000021AB4EE431AF1EE10FAB8BFB0EE431A58
:1042F000B4EE421AF1EE10FAC8BFB0EE421A20EE48
:10430000010A10EE100AFCF709F841EC100B40F21C
:104310005800C2F2000080ED000B10B010BD00BFCD
:104320005374617274696E672053656E736F727334
:104330002E2E2E0057616974696E6720666F722099
:1043400073656E736F722073746162696C697479DE
:1043500020283373292E2E2E000000005379737409
:10436000656D2052656164792E20436F6E74696EAD
:10437000756F7573205363616E6E696E6720537439
:1043800061727465642E00000000C84200409C46C3
:104390006F1203BB80B543F2B40044F60041C2F291
:1043A0000000C4F2000100234FF00C0C4FF4E13286
:1043B00080E80E00C0E90333C0E905C3C0E9073354
:1043C000C0E90933FFF746F8002818BFFCF726FDBF
:1043D00043F2B400C2F200000021FEF763FB0028A4
:1043E00018BFFCF71BFD43F2B400C2F2000000212D
:1043F000FEF712FB002818BFFCF710FD43F2B400D3
:10440000C2F20000FEF768FA002808BF80BDBDE8D0
:104410008040FCF703BD0000F0B581B0044643F6D0
:104420000000C4F201004FF4E13100220C2384E8C3
:1044300007002046C4E90322C4E90532C4E9072283
:10444000C4E90922FFF706F8054620460021FEF7D9
:1044500029FB064620460021FEF7DEFA07462046E5
:10446000FEF73AFA38433043284318BF012001B021
:10447000F0BD000080B542F68C7044F20041C2F2FB
:104480000000C4F2000100234FF00C0C4FF4E132A5
:1044900080E80E00C0E90333C0E905C3C0E9073373
:1044A000C0E90933FEF7D6FF002818BFFCF7B6FCB9
:1044B00042F68C70C2F200000021FEF7F3FA0028E9
:1044C00018BFFCF7ABFC42F68C70C2F20000002172
:1044D000FEF7A2FA002818BFFCF7A0FC42F68C7089
:1044E000C2F20000FEF7F8F9002808BF80BDBDE861
:1044F0008040FCF793BC000080B543F2200044F6F6
:104500000001C2F20000C4F2000100234FF00C0CC5
:104510004FF4E13280E80E00C0E90333C0E905C37F
:10452000C0E90733C0E90933FEF794FF002818BF3C
:10453000FCF774FC43F22000C2F200000021FEF7F9
:10454000B1FA002818BFFCF769FC43F22000C2F260
:1045500000000021FEF760FA002818BFFCF75EFC9F
:1045600043F22000C2F20000FEF7B6F9002808BFAF
:1045700080BDBDE88040FCF751BC0000FEE70000B4
:10458000FEE70000704700002DE9F04F82B0A2F175
:1045900004094FF0000BB5EE000ACDE9000100BFA1
:1045A0000BF00707DDE90001BBF1080F38BF01463A
:1045B00049F69C2601F1040307EB8702C0F60006CA
:1045C00049F61C2003EB8202C0F6000038BF064605
:1045D00036F81710928849F61C38891A09B221EA70
:1045E000E171C0F6000801EE101A08EB870191EDA9
:1045F000002A07F1080101EB810503EB850536F878
:104600001120AD88B8EEC11A08EB810122EE011A23
:10461000521B91ED002A07F1100112B201EB810546
:10462000BDEEC11A22EAE27203EB850511EE10AA73
:1046300001EE102A36F81120AC88B8EEC11A08EB4A
:10464000810122EE011A121B91ED002A07F11801D7
:1046500012B201EB8104BDEEC11A22EAE27203EB51
:10466000840411EE105A01EE102A36F81120A088A9
:10467000B8EEC11A101A22EE011A00B2BDEEC11A2C
:1046800020EAE07011EE104A01EE100A08EB8100FA
:1046900090ED002A07F1200000EB800203EB82027C
:1046A00036F81010928808EB8000891A90ED004AC5
:1046B00007F1280009B200EB800221EAE17103EB67
:1046C000820203EE101A36F81010928808EB800070
:1046D000891A90ED005A07F13000B8EEC11A09B2FC
:1046E00000EB800222EE011A21EAE17103EB820263
:1046F00002EE101A36F810109288BDEEC11A11EEB3
:1047000010EAB8EEC31A891A24EE011ABDEEC11AD6
:1047100009B208EB800021EAE17111EE10CAB8EE8F
:10472000C21A90ED002A07F1380003EE101A00EBD0
:10473000800103EB810125EE011A36F810208988EB
:10474000BDEEC11A11EE107AB8EEC31A511A22EE5C
:10475000011A09B2BDEEC11A21EAE17108EB80002D
:10476000AA452B4611EE106A01EE101A90ED002AB0
:10477000C8BF5346B8BF5546A342A246B8EEC11AB9
:10478000C8BF9A46A8BF2346F245724622EE011AD8
:10479000C8BF5246A8BFF2466245E646BDEEC11A02
:1047A000C8BF9646A8BF6246BE45BC46C8BFF446D1
:1047B000A8BFBE46B445B04611EE100AC8BFE046D9
:1047C000A8BFB4468045A8BF8046A5421E46CCBFC0
:1047D0002E462B4656455046C8BF3046A8BF5646C3
:1047E00090421146C8BF0146A8BF104671457246A7
:1047F000C8BF0A46A8BF71466245E646C8BF96468E
:10480000A8BF6246C645A8BFC646B3423446C8BF25
:104810001C46B8BF1E4684420546C8BF2546A8BFF1
:1048200004468D420B46C8BF2B46A8BF0D46934297
:104830001146C8BF1946A8BF13467145F446C8BF04
:104840008C46A8BF7146B0422246B4BF32463446B9
:10485000AA422F46C8BF1746A8BF2A469F421D46F8
:10486000C8BF3D46A8BF1F468D420B46C8BF2B465A
:10487000A8BF0D4694421146C8BF2146B8BF224684
:10488000B9423846C8BF0846A8BF3946A8422F4695
:10489000C8BF0746A8BF28468A42C8BF1146814202
:1048A000D8BF014678181844604401EE100AB8EEEB
:1048B000C11A21EE001A0BF1010B89ED011A09F161
:1048C0000409BBF1100F7FF46BAE02B0BDE8F08FAE
:1048D00070470000FDF71CB94EF68850CEF200007C
:1048E000016841F47001016070470000816A0A07A5
:1048F0000CD4CA0715D18A071ED44A0727D4CA0682
:1049000030D48A0639D44A0642D457E00268D0F837
:1049100038C0536823F4004343EA0C035360CA07CA
:10492000E9D00268D0F82CC0536823F4003343EA7E
:104930000C0353608A07E0D50268D0F830C0536892
:1049400023F4803343EA0C0353604A07D7D5026847
:10495000D0F834C0536823F4802343EA0C03536037
:10496000CA06CED50268D0F83CC0936823F48053C1
:1049700043EA0C0393608A06C5D50268D0F840C0AC
:10498000936823F4005343EA0C0393604A0615D559
:10499000D0F800C0436CDCF80420B3F5801F22F48B
:1049A000801242EA0302CCF8042007D1DCF804208C
:1049B000836C22F4C0021A43CCF80420090658BFC5
:1049C00070470168C06C4A6822F4002210434860B6
:1049D00070470000B0B582B004460020C4F89000D3
:1049E000FCF78AFD216805460A68120737D56FF083
:1049F0007E4C20464FF4001100222B46CDF800C01B
:104A000000F056FC50B300BF206850E8000F21684A
:104A100020F0800041E80002DAB1206850E8000F81
:104A2000216820F0800041E8000292B1206850E83F
:104A3000000F216820F0800041E800024AB12068A0
:104A400050E8000F216820F0800041E80002002AB1
:104A5000DAD10320202188226BE000BF216808689A
:104A600040075DD56FF07E4C20464FF48001002258
:104A70002B46CDF800C000F01BFC002850D000BF32
:104A8000206850E8000F216820F4907041E800028F
:104A9000BAB3206850E8000F216820F4907041E814
:104AA000000272B3206850E8000F216820F4907073
:104AB00041E800022AB3206850E8000F216820F482
:104AC000907041E80002002ADAD11AE0206850E82C
:104AD000020F216820F0010041E80202DAB12068EB
:104AE00050E8020F216820F0010041E8020292B173
:104AF000206850E8020F216820F0010041E802021E
:104B00004AB1206850E8020F216820F0010041E816
:104B10000202002ADAD1032020218C2209E000BF02
:104B20002020C4F88800C4F88C00002170220020E6
:104B3000E166A150002184F8841002B0B0BD0000ED
:104B4000806AFEF73FB90000806A0268D0F88830BA
:104B5000D0F88CC09168090651D5212B4FD100BFE8
:104B6000016851E8001F026821F0C00142E800130B
:104B7000BBB3016851E8001F026821F0C00142E8A0
:104B8000001373B3016851E8001F026821F0C001EF
:104B900042E800132BB3016851E8001F026821F0BE
:104BA000C00142E80013002BDAD11AE0016851E895
:104BB000021F026821F4000142E80213DBB1016820
:104BC00051E8021F026821F4000142E8021393B188
:104BD000016851E8021F026821F4000142E8021353
:104BE0004BB1016851E8021F026821F4000142E85C
:104BF0000213002BDAD12021C0F8881002689168D6
:104C0000490640F18080BCF1220F7CD1016851E857
:104C1000001F026821F4907142E80013DBB10168C3
:104C200051E8001F026821F4907142E8001393B12B
:104C3000016851E8001F026821F4907142E80013F6
:104C40004BB1016851E8001F026821F4907142E8FD
:104C50000013002BDAD14FF6FE7CCEF6FF7C00BFAE
:104C6000026852E8022F036802EA0C0243E80221BC
:104C7000D9B1016851E8021F026801EA0C0142E85B
:104C8000021393B1016851E8021F026801EA0C01A6
:104C900042E802134BB1016851E8021F026801EAC1
:104CA0000C0142E80213002BDAD1C16E012924D194
:104CB000016851E8001F026821F0100142E800136A
:104CC000DBB1016851E8001F026821F0100142E8E1
:104CD000001393B1016851E8001F026821F0100130
:104CE00042E800134BB1016851E8001F026821F04F
:104CF000100142E80013002BDAD12021C0F88C10FB
:104D00000021C1664167D0F8901041F01001C0F851
:104D10009010FEF757B8000002688446806A126857
:104D2000920600F1A0800022A0F85E20026852E8FE
:104D3000002F036822F4807243E80021E1B101688A
:104D400051E8001F026821F4807142E800139BB112
:104D5000016851E8001F026821F4807142E80013E5
:104D600053B1016851E8001F026821F4807142E8E4
:104D70000013002BDAD100BF016851E8021F02685E
:104D800021F0010142E80213BBB3016851E8021FA0
:104D9000026821F0010142E8021373B3016851E88F
:104DA000021F026821F0010142E802132BB30168DF
:104DB00051E8021F026821F0010142E80213002BB2
:104DC000DAD11AE0016851E8021F026821F04001BF
:104DD00042E80213DBB1016851E8021F026821F0CA
:104DE000400142E8021393B1016851E8021F0268D2
:104DF00021F0400142E802134BB1016851E8021F63
:104E0000026821F0400142E80213002BDAD1202190
:104E1000C0F88C10C16E012925D100BF016851E88E
:104E2000001F026821F0100142E80013DBB10168A5
:104E300051E8001F026821F0100142E8001393B10D
:104E4000016851E8001F026821F0100142E80013D8
:104E50004BB1016851E8001F026821F0100142E8DF
:104E60000013002BDAD100220267C16E012918BF9E
:104E7000FEF7F8BBA0F85E20DCF800104A68B0F836
:104E80005C1093B28B4238BFA0F85E20B0F85E2071
:104E9000891A89B2FDF788BD0146806A012202673E
:104EA000C26E012A18BFFEF7DFBBB0F85C205308C2
:104EB000A0F85E30096849688BB2934298BFA0F8A9
:104EC0005E10B0F85E10511A89B2FDF76DBD00009A
:104ED00070B5054605F108041ECC0068194341EA87
:104EE0000403EE69046846F6F311CCF6FF71214025
:104EF000194331430160416848F2000C21F44051EC
:104F000011434160AA69C4F2000C60451CBF296AC4
:104F10000A4381684FF2FF43C1F2FF131940114366
:104F20008160C16AD5F824E021F00F0141EA0E0149
:104F3000C16244F6FF31C4F2000188424FF0100311
:104F400014DD44F60041C4F20001884222D06045DD
:104F500028D043F60001C4F20101884238D141F261
:104F60008801C4F202010B687BA22DE044F20041EB
:104F7000C4F2000188421DD044F60001C4F20001D1
:104F8000884225D141F28801C4F2020109680B0967
:104F900016E000BF41F28801C4F2020109688B09E2
:104FA0000EE000BF41F28801C4F2020109688B0AD9
:104FB00006E000BF41F28801C4F2020109688B08D3
:104FC0004FF23032C0F6010203F0030152F82130F3
:104FD000604542F20040C0F2F40015D0B6F5004F33
:104FE00022D1082B4FF0010100F2AD80DFE803F081
:104FF000065C74AB64ABABAB720000BFFDF780F92D
:10500000002840F05D809AE0082B4FF0010100F28B
:105010009A80DFE803F0059825981B98989823005C
:10502000FDF76EF9B0B98AE0082B4FF0010100F2EC
:105030008A80DFE803F0053D6F88498888886D0025
:10504000FDF75EF9002842D179E000BFFDF784F951
:10505000002874D0D5F824E002E000BF4FF40040EF
:1050600049F61C41C0F6000131F81E106A68B0FB19
:10507000F1F002EB420188424FF0010163D31303C8
:10508000984260D8010E000210EB520041F100017D
:105090000023FBF7BDF84FF60052A0F54071C0F2B7
:1050A0000F02914249D34DE0FDF740F940B946E087
:1050B000FDF73CF958B942E0FDF74EF900283ED023
:1050C000D5F824E008E000BFFDF746F9B8B3D5F8FD
:1050D00024E01FE04FF4004049F61C41C0F60001F7
:1050E00031F81E106A68B0FBF1F0510801EB400086
:1050F000B0FBF2F04FF6EF72A0F11001914221D80F
:105100004FF6F0710140C0F34200084415E000BFC3
:105110004FF4004049F61C41C0F6000131F81E1062
:105120004FF6EF72B0FBF1F0696800EB5100B0FB95
:10513000F1F0A0F11001914204D82968C860002163
:1051400001E000BF01214FF00110A86600220846CF
:105150006A67AA6770BD00BF01000000040000007C
:105160000200000008000000B0B513460A46816541
:1051700000210446A0F85C30C0F890102220C4F84A
:105180008C00D4F88000E8B144F64935C0F600053B
:105190004563256844F6195C44F6996EC0F6000C28
:1051A000C0F6000E816305F12401C0E90BCEFBF7C8
:1051B000A1FF38B11020C4F890002020C4F88C0062
:1051C0000120B0BD206928B3206850E8000F216895
:1051D00040F4807041E80002E2B1206850E8000F1E
:1051E000216840F4807041E800029AB1206850E8DC
:1051F000000F216840F4807041E8000252B120683D
:1052000050E8000F216840F4807041E80002002A55
:10521000DAD100BF206850E8020F216840F0010099
:1052200041E80202BAB3206850E8020F216840F05A
:10523000010041E8020272B3206850E8020F2168C1
:1052400040F0010041E802022AB3206850E8020F52
:10525000216840F0010041E80202002ADAD11AE098
:10526000206850E8020F216840F0400041E8020247
:10527000DAB1206850E8020F216840F0400041E8B0
:10528000020292B1206850E8020F216840F040000D
:1052900041E802024AB1206850E8020F216840F05C
:1052A000400041E80202002ADAD10020B0BD00002F
:1052B0002DE9F041804600681546C2690E4611404E
:1052C000891BB1FA81F14909A94223D1069C2CB36B
:1052D000611C29D1C1693140891BB1FA81F14909A9
:1052E000A94217D1C1693140891BB1FA81F149093D
:1052F000A9420FD1C1693140891BB1FA81F1490935
:10530000A94207D1C1693140891BB1FA81F149092C
:10531000A942DFD00020BDE8F08100BFFCF7ECF827
:105320000320BDE8F08100BF1F4607E0C0693040A0
:10533000801BB0FA80F04009A842EBD1FCF7DCF802
:10534000C01BA04200F2AE80D8F8000001684907F7
:10535000ECD5402EEAD0802EE8D0C169090700F1D3
:10536000A580C1690905E1D54FF400610162D8F853
:10537000000050E8000FD8F8001020F4907041E8C9
:1053800000020AB3D8F8000050E8000FD8F8001067
:1053900020F4907041E80002B2B1D8F8000050E863
:1053A000000FD8F8001020F4907041E800025AB1C4
:1053B000D8F8000050E8000FD8F8001020F49070E2
:1053C00041E80002002AD2D14FF6FE70CEF6FF70FF
:1053D000D8F8001051E8021FD8F80020014042E838
:1053E0000213F3B1D8F8001051E8021FD8F80020DA
:1053F000014042E80213A3B1D8F8001051E8021F9F
:10540000D8F80020014042E8021353B1D8F8001048
:1054100051E8021FD8F80020014042E80213002B97
:10542000D6D1D8F86C0001282CD1D8F8000050E86B
:10543000000FD8F8001020F0100041E800020AB375
:10544000D8F8000050E8000FD8F8001020F0100045
:1054500041E80002B2B1D8F8000050E8000FD8F8D7
:10546000001020F0100041E800025AB1D8F8000006
:1054700050E8000FD8F8001020F0100041E80002BA
:10548000002AD2D120200021C8F88C00C8F86C1066
:10549000C8F87410C8F89000032088F88410BDE89C
:1054A000F08100BF0320BDE8F08100BF0821016248
:1054B000D8F8000050E8000FD8F8001020F49070E1
:1054C00041E800020AB3D8F8000050E8000FD8F80D
:1054D000001020F4907041E80002B2B1D8F800004A
:1054E00050E8000FD8F8001020F4907041E8000256
:1054F0005AB1D8F8000050E8000FD8F8001020F496
:10550000907041E80002002AD2D14FF6FE70CEF62C
:10551000FF70D8F8001051E8021FD8F800200140B1
:1055200042E80213F3B1D8F8001051E8021FD8F88E
:105530000020014042E80213A3B1D8F8001051E85E
:10554000021FD8F80020014042E8021353B1D8F8F6
:10555000001051E8021FD8F80020014042E8021371
:10556000002BD6D1D8F86C0001282CD1D8F8000037
:1055700050E8000FD8F8001020F0100041E80002B9
:105580000AB3D8F8000050E8000FD8F8001020F057
:10559000100041E80002B2B1D8F8000050E8000F56
:1055A000D8F8001020F0100041E800025AB1D8F8F5
:1055B000000050E8000FD8F8001020F0100041E87B
:1055C0000002002AD2D12020C8F88C000020082137
:1055D000C8F86C00C8F87400C8F8901088F8840007
:1055E0000120BDE8F081000042F68C70C2F200009C
:1055F000FDF708BCFEE70000022884BF6FF0010041
:10560000704780B540F2140240F2D003C2F20002AB
:10561000C2F20003126953F8200090476FF00401B2
:1056200001EAE07080BD0000022884BF6FF0010035
:10563000704780B540F2140240F2D003C2F200027B
:10564000C2F20003D26953F8200090476FF00401C2
:1056500001EAE07080BD0000022884BF6FF0010005
:10566000704770B588B004465220ADF8100040F67F
:105670004110C0F60000029040F6F100C0F60000B4
:10568000039040F67520C0F60000059040F62920F2
:10569000C0F60000069040F6F850C2F200004FF449
:1056A0002E6104FB010540F6ED00C0F600000790F6
:1056B00002A9284600F098FB20B16FF0040008B062
:1056C00070BD00BF40F2D006C2F2000601A9284614
:1056D00046F8245000F04AFB20B16FF0040008B0F7
:1056E00070BD00BF01984FF20C0188420CD140F20E
:1056F0001405C2F20005296856F82400884738B11D
:105700006FF0040008B070BD6FF0060008B070BD07
:10571000EA6856F8240006F10C019047002818BFEB
:105720006FF0040008B070BD022884BF6FF0010064
:10573000704780B540F2140240F2D003C2F200027A
:10574000C2F20003926853F8200090476FF0040102
:1057500001EAE07080BD0000022884BF6FF0010004
:10576000704780B540F2140240F2D003C2F200024A
:10577000C2F20003926A53F8200090476FF00401D0
:1057800001EAE07080BD0000022884BF6FF00100D4
:10579000704780B540F2140240F2D003C2F200021A
:1057A000C2F20003126A53F8200090476FF0040120
:1057B00001EAE07080BD0000024600286FF00100A1
:1057C00018BF002900D170472DE9F04782B0086862
:1057D00002F11808FF280BD14046002102F0DCFF3F
:1057E000002818BF4FF0FF3002B0BDE8F047704707
:1057F0000C460DF10701404602F052F89DF807E013
:1058000040F6F821BEF1000FC2F2000100F08280E4
:10581000D4E90052A3680EF0030CBEF1040F4FF060
:10582000000040D301F12F060EF0FC0903244FF0D5
:10583000010A00BFE71E06F8257CA71E06F8197CA2
:10584000671E06F80D7C06F8014C271D013406F88A
:1058500027AC06F8265C06F8240C46F82F2C46F8F0
:105860002B3C06F81BAC06F81A5C06F8180C46F838
:10587000232C46F81F3C06F80FAC06F80E5C06F821
:105880000C0C46F8172C46F8133C06F803AC06F847
:10589000025C307046F80B2C46F8073C30364C451D
:1058A0003C46C7D1F81EBCF1000F35D000EB4007D5
:1058B00001EB87044FF001094FF0000ABCF1010F22
:1058C000A07284F80890657284F80BA041F8272034
:1058D000636021D0441C04EB440701EB8706BCF154
:1058E000020FB47286F80890757286F80BA041F822
:1058F0002720736010D0023000EB400701EB8706D1
:10590000B0720120307200207572F07241F82720C9
:10591000736001E04FF0000E0EEB4E0001EB8000D3
:10592000827A42F080028272404602F0E3FA054633
:105930004046012102F030FF284318BF4FF0FF30EE
:1059400002B0BDE8F0477047024600286FF0010042
:1059500018BF002900D1704708780138C3B2032B63
:105960001AD82DE9F04381B0C000C7B241F210004F
:10597000C4F24000F84002F118048846D1E901560B
:10598000C1B22046914603F0CBF848B14FF0FF304A
:1059900001B0BDE8F08300BF6FF00100704700BFA9
:1059A00040F20130C0F20130F840C1B2204603F0AD
:1059B0007DF828B14FF0FF3001B0BDE8F08300BFA3
:1059C0002046294602F038FF20B14FF0FF3001B0E9
:1059D000BDE8F083F1B2204603F04EF820B14FF05D
:1059E000FF3001B0BDE8F083D8E90301002818BFFB
:1059F000012089F8DC0A0020002918BF012189F85C
:105A0000DD1A01B0BDE8F0836FF0030070470000BD
:105A1000002804BF6FF00100704790F8D81A0129E0
:105A20001CBF4FF0FF30704710B5044640688047F8
:105A3000002812BF4FF0FF30002084F8D80A10BDB4
:105A4000024600286FF0010018BF002900D17047FE
:105A5000108908600020704700286FF0010018BF0F
:105A6000002901D1704700BF402201230020C1E975
:105A70000023C1E9020370472DE9F04F85B00746C6
:105A800000286FF0010038D00C46B1B397F8D90A5E
:105A9000002847D097F8DA0A07F1180901284FF0D3
:105AA000000017D179698DF81100884706460DF17D
:105AB000110541F2883800BF4846294601F0B4F884
:105AC0009DF8110001281BD078698047801B404554
:105AD000F2D30FE079698DF8120088470DF11201B9
